{
  "contractName": "BookRoyalties",
  "abi": [
    {
      "inputs": [],
      "stateMutability": "nonpayable",
      "type": "constructor"
    },
    {
      "anonymous": false,
      "inputs": [
        {
          "indexed": true,
          "internalType": "address",
          "name": "from",
          "type": "address"
        },
        {
          "indexed": false,
          "internalType": "uint256",
          "name": "amount",
          "type": "uint256"
        }
      ],
      "name": "RoyaltiesColelected",
      "type": "event"
    },
    {
      "anonymous": false,
      "inputs": [
        {
          "indexed": true,
          "internalType": "address",
          "name": "to",
          "type": "address"
        },
        {
          "indexed": false,
          "internalType": "uint256",
          "name": "amount",
          "type": "uint256"
        }
      ],
      "name": "RoyaltiesWithdrawn",
      "type": "event"
    },
    {
      "inputs": [
        {
          "internalType": "uint256",
          "name": "",
          "type": "uint256"
        }
      ],
      "name": "authorList",
      "outputs": [
        {
          "internalType": "address",
          "name": "",
          "type": "address"
        }
      ],
      "stateMutability": "view",
      "type": "function"
    },
    {
      "inputs": [
        {
          "internalType": "address",
          "name": "",
          "type": "address"
        }
      ],
      "name": "authorShares",
      "outputs": [
        {
          "internalType": "uint256",
          "name": "",
          "type": "uint256"
        }
      ],
      "stateMutability": "view",
      "type": "function"
    },
    {
      "inputs": [],
      "name": "owner",
      "outputs": [
        {
          "internalType": "address",
          "name": "",
          "type": "address"
        }
      ],
      "stateMutability": "view",
      "type": "function"
    },
    {
      "inputs": [
        {
          "internalType": "address",
          "name": "",
          "type": "address"
        }
      ],
      "name": "royaltiesBalance",
      "outputs": [
        {
          "internalType": "uint256",
          "name": "",
          "type": "uint256"
        }
      ],
      "stateMutability": "view",
      "type": "function"
    },
    {
      "inputs": [],
      "name": "totalroyaltiesCollected",
      "outputs": [
        {
          "internalType": "uint256",
          "name": "",
          "type": "uint256"
        }
      ],
      "stateMutability": "view",
      "type": "function"
    },
    {
      "stateMutability": "payable",
      "type": "receive"
    },
    {
      "inputs": [
        {
          "internalType": "address",
          "name": "author",
          "type": "address"
        },
        {
          "internalType": "uint256",
          "name": "share",
          "type": "uint256"
        }
      ],
      "name": "setAuthorShare",
      "outputs": [],
      "stateMutability": "nonpayable",
      "type": "function"
    },
    {
      "inputs": [],
      "name": "collectRoyalties",
      "outputs": [],
      "stateMutability": "payable",
      "type": "function"
    },
    {
      "inputs": [],
      "name": "withdrawRoyalties",
      "outputs": [],
      "stateMutability": "nonpayable",
      "type": "function"
    },
    {
      "inputs": [],
      "name": "getAuthor",
      "outputs": [
        {
          "internalType": "address[]",
          "name": "",
          "type": "address[]"
        }
      ],
      "stateMutability": "view",
      "type": "function"
    }
  ],
  "bytecode": "0x608060405234801561001057600080fd5b50336000806101000a81548173ffffffffffffffffffffffffffffffffffffffff021916908373ffffffffffffffffffffffffffffffffffffffff160217905550610fae806100606000396000f3fe60806040526004361061008a5760003560e01c8063762783c611610059578063762783c6146101275780638da5cb5b14610164578063a0a304da1461018f578063a5faa125146101cc578063d90e4ddc146101f757610099565b80632128bb331461009e57806321c34fcb146100db5780634a3f133e146100f25780636009541a146100fc57610099565b3661009957610097610220565b005b600080fd5b3480156100aa57600080fd5b506100c560048036038101906100c091906109ad565b610526565b6040516100d29190610d21565b60405180910390f35b3480156100e757600080fd5b506100f061053e565b005b6100fa610220565b005b34801561010857600080fd5b506101116106a2565b60405161011e9190610d21565b60405180910390f35b34801561013357600080fd5b5061014e60048036038101906101499190610a12565b6106a8565b60405161015b9190610c44565b60405180910390f35b34801561017057600080fd5b506101796106e7565b6040516101869190610c44565b60405180910390f35b34801561019b57600080fd5b506101b660048036038101906101b191906109ad565b61070b565b6040516101c39190610d21565b60405180910390f35b3480156101d857600080fd5b506101e1610723565b6040516101ee9190610c5f565b60405180910390f35b34801561020357600080fd5b5061021e600480360381019061021991906109d6565b6107b1565b005b60003411610263576040517f08c379a000000000000000000000000000000000000000000000000000000000815260040161025a90610ce1565b60405180910390fd5b6000805b6004805490508110156103385760036000600483815481106102b2577f4e487b7100000000000000000000000000000000000000000000000000000000600052603260045260246000fd5b9060005260206000200160009054906101000a900473ffffffffffffffffffffffffffffffffffffffff1673ffffffffffffffffffffffffffffffffffffffff1673ffffffffffffffffffffffffffffffffffffffff16815260200190815260200160002054826103239190610d86565b9150808061033090610ea3565b915050610267565b506064811461037c576040517f08c379a000000000000000000000000000000000000000000000000000000000815260040161037390610cc1565b60405180910390fd5b346001600082825461038e9190610d86565b9250508190555060005b6004805490508110156104d4576000600482815481106103e1577f4e487b7100000000000000000000000000000000000000000000000000000000600052603260045260246000fd5b9060005260206000200160009054906101000a900473ffffffffffffffffffffffffffffffffffffffff16905060006064600360008473ffffffffffffffffffffffffffffffffffffffff1673ffffffffffffffffffffffffffffffffffffffff168152602001908152602001600020543461045d9190610e0d565b6104679190610ddc565b905080600260008473ffffffffffffffffffffffffffffffffffffffff1673ffffffffffffffffffffffffffffffffffffffff16815260200190815260200160002060008282546104b89190610d86565b92505081905550505080806104cc90610ea3565b915050610398565b503373ffffffffffffffffffffffffffffffffffffffff167fc6798ee5ce1f093c5c6b9de9c4fe4705ffb6d34ebe6d6a03c0426f658b5e00f33460405161051b9190610d21565b60405180910390a250565b60036020528060005260406000206000915090505481565b6000600260003373ffffffffffffffffffffffffffffffffffffffff1673ffffffffffffffffffffffffffffffffffffffff168152602001908152602001600020549050600081116105c5576040517f08c379a00000000000000000000000000000000000000000000000000000000081526004016105bc90610ca1565b60405180910390fd5b6000600260003373ffffffffffffffffffffffffffffffffffffffff1673ffffffffffffffffffffffffffffffffffffffff168152602001908152602001600020819055503373ffffffffffffffffffffffffffffffffffffffff166108fc829081150290604051600060405180830381858888f19350505050158015610650573d6000803e3d6000fd5b503373ffffffffffffffffffffffffffffffffffffffff167f312b70e5726648ad7ab64374bb491934c2732cfb4f8c285ea2c1bbe4fa07f3db826040516106979190610d21565b60405180910390a250565b60015481565b600481815481106106b857600080fd5b906000526020600020016000915054906101000a900473ffffffffffffffffffffffffffffffffffffffff1681565b60008054906101000a900473ffffffffffffffffffffffffffffffffffffffff1681565b60026020528060005260406000206000915090505481565b606060048054806020026020016040519081016040528092919081815260200182805480156107a757602002820191906000526020600020905b8160009054906101000a900473ffffffffffffffffffffffffffffffffffffffff1673ffffffffffffffffffffffffffffffffffffffff168152602001906001019080831161075d575b5050505050905090565b60008054906101000a900473ffffffffffffffffffffffffffffffffffffffff1673ffffffffffffffffffffffffffffffffffffffff163373ffffffffffffffffffffffffffffffffffffffff161461083f576040517f08c379a000000000000000000000000000000000000000000000000000000000815260040161083690610c81565b60405180910390fd5b600081118015610850575060648111155b61088f576040517f08c379a000000000000000000000000000000000000000000000000000000000815260040161088690610d01565b60405180910390fd5b6000600360008473ffffffffffffffffffffffffffffffffffffffff1673ffffffffffffffffffffffffffffffffffffffff16815260200190815260200160002054141561093b576004829080600181540180825580915050600190039060005260206000200160009091909190916101000a81548173ffffffffffffffffffffffffffffffffffffffff021916908373ffffffffffffffffffffffffffffffffffffffff1602179055505b80600360008473ffffffffffffffffffffffffffffffffffffffff1673ffffffffffffffffffffffffffffffffffffffff168152602001908152602001600020819055505050565b60008135905061099281610f4a565b92915050565b6000813590506109a781610f61565b92915050565b6000602082840312156109bf57600080fd5b60006109cd84828501610983565b91505092915050565b600080604083850312156109e957600080fd5b60006109f785828601610983565b9250506020610a0885828601610998565b9150509250929050565b600060208284031215610a2457600080fd5b6000610a3284828501610998565b91505092915050565b6000610a478383610a53565b60208301905092915050565b610a5c81610e67565b82525050565b610a6b81610e67565b82525050565b6000610a7c82610d4c565b610a868185610d64565b9350610a9183610d3c565b8060005b83811015610ac2578151610aa98882610a3b565b9750610ab483610d57565b925050600181019050610a95565b5085935050505092915050565b6000610adc602183610d75565b91507f4f6e6c79206f776e65722063616e2063616c6c20746869732066756e6374696f60008301527f6e000000000000000000000000000000000000000000000000000000000000006020830152604082019050919050565b6000610b42601883610d75565b91507f4e6f20726f79616c7469657320746f20776974686472617700000000000000006000830152602082019050919050565b6000610b82601883610d75565b91507f546f74616c207368617265206d757374206265203130302500000000000000006000830152602082019050919050565b6000610bc2601783610d75565b91507f536f6d65206574686572206d7573742062652073656e740000000000000000006000830152602082019050919050565b6000610c02601f83610d75565b91507f5368617265206d757374206265206265747765656e203020616e6420313030006000830152602082019050919050565b610c3e81610e99565b82525050565b6000602082019050610c596000830184610a62565b92915050565b60006020820190508181036000830152610c798184610a71565b905092915050565b60006020820190508181036000830152610c9a81610acf565b9050919050565b60006020820190508181036000830152610cba81610b35565b9050919050565b60006020820190508181036000830152610cda81610b75565b9050919050565b60006020820190508181036000830152610cfa81610bb5565b9050919050565b60006020820190508181036000830152610d1a81610bf5565b9050919050565b6000602082019050610d366000830184610c35565b92915050565b6000819050602082019050919050565b600081519050919050565b6000602082019050919050565b600082825260208201905092915050565b600082825260208201905092915050565b6000610d9182610e99565b9150610d9c83610e99565b9250827fffffffffffffffffffffffffffffffffffffffffffffffffffffffffffffffff03821115610dd157610dd0610eec565b5b828201905092915050565b6000610de782610e99565b9150610df283610e99565b925082610e0257610e01610f1b565b5b828204905092915050565b6000610e1882610e99565b9150610e2383610e99565b9250817fffffffffffffffffffffffffffffffffffffffffffffffffffffffffffffffff0483118215151615610e5c57610e5b610eec565b5b828202905092915050565b6000610e7282610e79565b9050919050565b600073ffffffffffffffffffffffffffffffffffffffff82169050919050565b6000819050919050565b6000610eae82610e99565b91507fffffffffffffffffffffffffffffffffffffffffffffffffffffffffffffffff821415610ee157610ee0610eec565b5b600182019050919050565b7f4e487b7100000000000000000000000000000000000000000000000000000000600052601160045260246000fd5b7f4e487b7100000000000000000000000000000000000000000000000000000000600052601260045260246000fd5b610f5381610e67565b8114610f5e57600080fd5b50565b610f6a81610e99565b8114610f7557600080fd5b5056fea264697066735822122063f6402d14fa01a0e3fdc5e229f1580bebcbba425a8f0c70fdfcfdb3c5b1f63964736f6c63430008000033",
  "immutableReferences": {},
  "source": "// SPDX-License-Identifier: MIT\r\npragma solidity ^0.8.0;\r\n\r\n\r\ncontract BookRoyalties {\r\n    address public owner;\r\n    uint256 public totalroyaltiesCollected;\r\n    mapping (address => uint256) public royaltiesBalance;\r\n    mapping (address => uint256) public authorShares;\r\n    address[] public authorList;\r\n\r\n    event RoyaltiesColelected(address indexed from, uint256 amount);\r\n    event RoyaltiesWithdrawn(address indexed to, uint256 amount);\r\n\r\n    modifier onlyOwner() {\r\n        require(msg.sender == owner, \"Only owner can call this function\");\r\n        _;\r\n    }\r\n\r\n    constructor() {\r\n        owner = msg.sender;\r\n    }\r\n\r\n    function setAuthorShare(address author, uint256 share) public onlyOwner {\r\n        require(share > 0 && share <= 100, \"Share must be between 0 and 100\");\r\n        if(authorShares[author] == 0) {\r\n            authorList.push(author);\r\n        }\r\n        authorShares[author] = share;\r\n    }\r\n\r\n    function collectRoyalties() public payable {\r\n        require(msg.value > 0, \"Some ether must be sent\");\r\n        uint256 totalShare = 0;\r\n\r\n        for(uint256 i = 0; i < authorList.length; i++) {\r\n            totalShare += authorShares[authorList[i]];\r\n        }\r\n\r\n        require(totalShare == 100, \"Total share must be 100%\");\r\n\r\n        totalroyaltiesCollected += msg.value;\r\n\r\n        for (uint256 i = 0; i < authorList.length; i++) {\r\n            address author = authorList[i];\r\n            uint256 royalty = (msg.value * authorShares[author]) / 100;\r\n            royaltiesBalance[author] += royalty;\r\n        }\r\n\r\n        emit RoyaltiesColelected(msg.sender, msg.value);\r\n    }\r\n\r\n    function withdrawRoyalties() public {\r\n        uint256 amount = royaltiesBalance[msg.sender];\r\n        require(amount > 0, \"No royalties to withdraw\");\r\n\r\n        royaltiesBalance[msg.sender] = 0;\r\n        payable(msg.sender).transfer(amount);\r\n\r\n        emit RoyaltiesWithdrawn(msg.sender, amount);\r\n    }\r\n\r\n    function getAuthor() public view returns (address[] memory) {\r\n        return authorList;\r\n    }\r\n\r\n    receive() external payable {\r\n        collectRoyalties();\r\n    }\r\n}",
  "sourcePath": "C:\\Users\\omele\\OneDrive\\ \\Diploma\\ETH-ERC20\\royalties\\contracts\\BookRoyalties.sol",
  "compiler": {
    "name": "solc",
    "version": "0.8.0+commit.c7dfd78e.Emscripten.clang"
  },
  "schemaVersion": "3.4.16",
  "updatedAt": "2024-07-18T00:46:41.226Z",
  "devdoc": {
    "kind": "dev",
    "methods": {},
    "version": 1
  },
  "userdoc": {
    "kind": "user",
    "methods": {},
    "version": 1
  }
}